kubectl get nodes
kubectl get pod -n kube-system

Without certificate and etcd address
etcdctl put test "Sample text insert inside etcd"
Error: context deadine exceede 
 
Authentication Method:
We communicate etcd we need address(endpoints:portNo), certificate(server.crt, server.key) 
ETCDCTL_API=3 etcdctl  --endpoints=https://localhost:2379 --insecure-skip-tls-verify --insecure-transport=false --cert /etc/kubernetes/pki/etcd/server.crt  --key /etc/kubernetes/pki/etcd/server.key  put test "sample data insert in etcd"

ETCDCTL_API=3 etcdctl  --endpoints=https://localhost:2379 --insecure-skip-tls-verify --insecure-transport=false --cert /etc/kubernetes/pki/etcd/server.crt  --key /etc/kubernetes/pki/etcd/server.key  get  test                             
test
sample data insert in etcd


tcpdump -i lo -X port 2379
tcpdump	The command-line packet analyzer tool , It is used to capture and display network traffic on a Linux/Unix system..
-i lo	Tells tcpdump to listen on the loopback interface (lo), i.e., traffic on localhost or 127.0.0.1.
-X	Displays both hex and ASCII output of the packet contents. Useful for inspecting payloads.
port 2379	Filters packets to show only traffic on TCP or UDP port 2379.


Direct database install
REF: https://computingforgeeks.com/how-to-install-etcd-on-rhel-centos-rocky-almalinux/

sudo dnf -y install curl wget vim tcpdump
# Step:1 Download Etcd binary
ETCD_RELEASE=$(curl -s https://api.github.com/repos/etcd-io/etcd/releases/latest|grep tag_name | cut -d '"' -f 4)
echo $ETCD_RELEASE
wget https://github.com/etcd-io/etcd/releases/download/${ETCD_RELEASE}/etcd-${ETCD_RELEASE}-linux-amd64.tar.gz
 
# Extract downloaded archive file.
tar xvf etcd-${ETCD_RELEASE}-linux-amd64.tar.gz

# Change to new file directory
cd etcd-${ETCD_RELEASE}-linux-amd64

# Move etcd and etcdctl binary files to /usr/local/bin directory.
sudo mv etcd* /usr/local/bin 

# List binary files and scripts executable in /usr/local/bin directory:
ls /usr/local/bin 

# Confirm version.
etcd --version

# Step 2: Configure Etcd Systemd service
cd
sudo mkdir -p /var/lib/etcd/
sudo mkdir /etc/etcd

# Create etcd system user
sudo groupadd --system etcd
sudo useradd -s /sbin/nologin --system -g etcd etc

# Set /var/lib/etcd/ directory ownership to etcd user.
sudo chown -R etcd:etcd /var/lib/etcd/
sudo chmod 0775 /var/lib/etcd/

# Configure Systemd and start etcd service
# Create a new systemd service file for etcd.

sudo bash -c 'cat << "EOF" > /etc/systemd/system/etcd.service
[Unit]
Description=etcd key-value store
Documentation=https://github.com/etcd-io/etcd
After=network.target

[Service]
User=etcd
Type=notify
Environment=ETCD_DATA_DIR=/var/lib/etcd
Environment=ETCD_NAME=%m
ExecStart=/usr/local/bin/etcd
Restart=always
RestartSec=10s
LimitNOFILE=40000

[Install]
WantedBy=multi-user.target
EOF'


# Reload systemd service and start etcd 
sudo systemctl daemon-reload
sudo systemctl start etcd.service
NOTE: THIS ERROR OCCUR WHILE STARTING SERVICE, JUST FOLLOW BELOW STEPS AS IT IS ,IT WORK FINE ..
Error:
Job for etcd.service failed because the control process exited with error code.
See "systemctl status etcd.service" and "journalctl -xeu etcd.service" for details.

# Enable service to start when system is rebooted
sudo systemctl enable etcd.service

# If you have SELinux running in enforcing mode, then generate a local policy module to allow access to data directories.
sudo ausearch -c '(etcd)' --raw | audit2allow -M my-etcd

# To make this policy package active, execute:
sudo semodule -X 300 -i my-etcd.pp
sudo restorecon -Rv /usr/local/bin/etcd

# Restart etcd service.
sudo systemctl restart etcd

# Check service status to confirm it is running.
systemctl status etcd



# Trying to insert data inside etcd db . 
 etcdctl put test "welcome to etcd db"
# Capture and display network traffic on a Linux/Unix system using tcpdump command. 
 tcpdump -i lo -X port 2379

# Output
# 17:41:06.450416 IP localhost.41432 > localhost.etcd-client: Flags [P.], seq 156:196, ack 25, win 512, options [nop,nop,TS val 1185275554 ecr 1185275554], length 40
        0x0000:  4500 005c be99 4000 4006 7e00 7f00 0001  E..\..@.@.~.....
        0x0010:  7f00 0001 a1d8 094b ebc3 dd89 8e9c e4f2  .......K........
        0x0020:  8018 0200 fe50 0000 0101 080a 46a5 dea2  .....P......F...
        0x0030:  46a5 dea2 0000 1f00 0100 0000 0100 0000  F...............
        0x0040:  001a 0a04 7465 7374 1212 7765 6c63 6f6d  ....test..welcom
        0x0050:  6520 746f 2065 7463 6420 6462            e.to.etcd.db

# use secret parameter
etcdctl put test secret "learning etcd in CKS without tls/ssl"
OK
tcpdum -i lo -X port 2379
# 17:51:55.828719 IP localhost.52170 > localhost.etcd-client: Flags [P.], seq 156:184, ack 25, win 512, options [nop,nop,TS val 1185924933 ecr 1185924932], length 28
        0x0000:  4500 0050 3161 4000 4006 0b45 7f00 0001  E..P1a@.@..E....
        0x0010:  7f00 0001 cbca 094b c884 8890 f899 f7ee  .......K........
        0x0020:  8018 0200 fe44 0000 0101 080a 46af c745  .....D......F..E
        0x0030:  46af c744 0000 1300 0100 0000 0100 0000  F..D............
        0x0040:  000e 0a04 7465 7374 1206 7365 6372 6574  ....test..secret

# to read data form etcd database
 cat /var/lib/etcd/member/wal/0000000000000000-0000000000000000.wal
